:020000040000FA
:0600000048EF07F01200BA
:020006001200E6
:060008001FEF00F01200E2
:02000E000000F0
:020010000000EE
:0800180097EF00F01200000157
:10002000906B916B926B936B946B956B0F0EC16E93
:10003000D08EF28E14EC07F02AEC07F0FDD7DACF61
:10004000E4FFE2CFDAFFE9CFE4FFEACFE4FFF6CF47
:10005000E4FFF7CFE4FFF5CFE4FFF3CFE4FFF4CF05
:10006000E4FFFACFE4FFFBCFE4FF00EE00F0140E54
:10007000E80403E3EECFE4FFFBD700EE14F0100E2C
:10008000E80403E3EECFE4FFFBD7E6529EAC05D0D5
:100090009E9CC0EC05F0000924E1F250040B13E033
:1000A00000018F5110E0F2949EC0E6FF9FC0E6FF72
:1000B000E5EC06F0E552E55200018B2B000E8C2397
:1000C0008D238E230ED0000190519111921109E0E1
:1000D00007D092C0FBFF91C0FAFF00019051F96E6A
:1000E000F8DFE55200EE23F0100EE80403E3E5CF5D
:1000F000EDFFFBD700EE13F0140EE80403E3E5CFA9
:10010000EDFFFBD7E5CFFBFFE5CFFAFFE5CFF4FF2F
:10011000E5CFF3FFE5CFF5FFE5CFF7FFE5CFF6FF3E
:10012000E5CFEAFFE5CFE9FFE5CFDAFF1100D8CF51
:10013000E4FFE0CFE4FFE46EDACFE4FFE2CFDAFFE2
:10014000E9CFE4FFEACFE4FFF6CFE4FFF7CFE4FF27
:10015000F5CFE4FFF3CFE4FFF4CFE4FFFACFE4FF01
:10016000FBCFE4FF00EE00F0140EE80403E3EECF53
:10017000E4FFFBD700EE14F0100EE80403E3EECF2B
:10018000E4FFFBD7E6529EAC05D09E9CC0EC05F088
:10019000000924E1F250040B13E000018F5110E03C
:1001A000F2949EC0E6FF9FC0E6FFE5EC06F0E55244
:1001B000E55200018B2B000E8C238D238E230ED055
:1001C000000193519411951109E007D095C0FBFFF0
:1001D00094C0FAFF00019351F96EF8DFE55200EE8A
:1001E00023F0100EE80403E3E5CFEDFFFBD700EEAC
:1001F00013F0140EE80403E3E5CFEDFFFBD7E5CFE2
:10020000FBFFE5CFFAFFE5CFF4FFE5CFF3FFE5CF46
:10021000F5FFE5CFF7FFE5CFF6FFE5CFEAFFE5CF46
:10022000E9FFE5CFDAFFE550E5CFE0FFE5CFD8FF06
:020230001000BC
:0E0232000200AC0E0000870000000900000072
:0C0240000E0000009A0000000400000006
:04024C00019E08D037
:10025000019E09AE05D0086C091EE86A0922018ECC
:1002600009C003F008C002F0136A126A8E0E046E11
:10027000056A7DEF02F0016AB9EC02F0D1EC02F000
:1002800001B661EF02F001A205D001BA61EF02F000
:1002900068EF02F001BA74EF02F001A005D001B8D6
:1002A00061EF02F074EF02F001B868EF02F0056A46
:1002B0007F0E0A24046EE86A05220F50045EE86A85
:1002C000055A1A0E106E0A6A126A136A026A036AE3
:1002D0000C50075E0D50085A0E50095A000E0A5A6B
:1002E00009E70C5007260D5008220E500922000E77
:1002F0000A2201D0128AD8900736083609360A3603
:10030000D8901236133602360336102EE1D7095034
:1003100008100710D8A4128A7DEF02F0016AB9EC28
:1003200002F0D1EC02F001B661EF02F001A205D0BB
:1003300001B861EF02F068EF02F001AA05D001B048
:1003400061EF02F068EF02F001B002D001A802D024
:1003500074EF02F0056A0F500A24046EE86A052261
:100360007E0E045EE86A055A126A136A026A036A1C
:100370000E500902F4CF03F0F3CF02F00D50090242
:10038000F3501326F4500222000E03220E500802EE
:10039000F3501326F4500222000E03220C500902DF
:1003A000F3501226F4501322000E022203220D50A5
:1003B0000802F3501226F4501322000E02220322E8
:1003C0000E500702F3501226F4501322000E0222A0
:1003D00003220C500802F4501226000E13220222AF
:1003E00003220D500702F4501226000E132202229F
:1003F00003227DEF02F0016AB9EC02F001B605EFCD
:1004000002F001A20ED001B405D07F0E096EFF0EDE
:10041000086E1FD0800E096E086A1BD0096A086A30
:1004200018D001B0FBD78F0E0A60EDD77E0E0A649C
:10043000F5D78E0E0A5C05E0D890093208320A2AF8
:10044000F8D701A406D0086C091EE86A092209AE93
:10045000E5D71200016AB9EC02F001B634EF02F000
:1004600001A20FD001B407D07F0E096EFF0E086EF7
:10047000076E066E25D0800E096E01D0096A000E47
:10048000F6D701B0FBD7066A9F0E0A60EBD77E0E47
:100490000A64F4D79E0E0A5C07E0D890093208324D
:1004A000073206320A2AF6D701A40AD0066C071EC4
:1004B000081E091EE86A07220822092209AEDED7B3
:1004C00012007F0E0A6EFF0E096E086E076E120094
:1004D0007F0E01BEFF0E0A6E02D07F0E0A6E800EE6
:1004E000096E086A076AF3D701AE04D0800E0A6E5F
:1004F000096AF7D70A6A096AF4D703500210131081
:100500001210F8E005BEF0D703BE0CD00450051061
:10051000EBE0D89012361336023603360406D8A024
:100520000506F2D70550D4E10428D2E012AE11D06E
:100530007F0E121402E113A00CD0132AE86A0222E3
:10054000032207E3D880033202321332042A04283C
:10055000BFE00450C9E013C007F002C008F0033444
:10056000096E04300A6E09320A9E01BE0A8E67EFD8
:1005700002F009360A3602E30184017E06E10180B9
:100580000A6A096A086A076A12000A2803E0D88022
:1005900009321200D890093202E10182120001866C
:1005A00012000E360F3602E3018C017E06E101884F
:1005B0000F6A0E6A0D6A0C6A12000F2803E0D880D9
:0E05C0000E321200D8900E32EAE1018A1200CB
:0205CE00D9CF83
:1005D000E6FFE1CFD9FF076A086A7A0E096E450E79
:1005E0000A6EFB0EDBCF0CF0FC0EDBCF0DF0FD0E28
:1005F000DBCF0EF0FE0EDBCF0FF03BEC01F007C0BF
:1006000087F008C088F009C089F00AC08AF0E55276
:10061000E7CFD9FF1200D9CFE6FFE1CFD9FF080E0F
:10062000E126FD0EDBCF08F0FE0EDBCF09F026EC55
:1006300001F007C014F008C015F009C016F00AC098
:1006400017F01C6A1D6A120E1E6E420E1F6E87C0C6
:100650000CF088C00DF089C00EF08AC00FF01CC0ED
:1006600007F01DC008F01EC009F00A6E8EEC01F004
:1006700007C018F008C019F009C01AF00AC01BF032
:1006800007C00CF008C00DF009C00EF00AC00FF052
:1006900014C007F015C008F016C009F017C00AF022
:1006A0003BEC01F02AEC02F006C0DEFF07C0DEFFE3
:1006B00008C0DEFF09C0DDFFDD52DD52040EDB6A3B
:1006C000050EDB6A060EDB6A070EDB6A040EDBCF63
:1006D00014F0050EDBCF15F0060EDBCF16F0070E7B
:1006E000DBCF17F0D9CFE9FFDACFEAFFEE50145C89
:1006F000EE501558EE501658EE5017580BE2D950E0
:10070000040FE96EDACFEAFFEE2A000EEE22EE22A7
:10071000EE22DCD7080EE15C02E2E16AE552E16E0E
:10072000E552E7CFD9FF1200D9CFE6FFE1CFD9FFDD
:100730000C0EE126080EDB6A090EDB6A0A0EDB6A84
:100740000B0EDB6AFD0EDBCF08F0FE0EDBCF09F0EF
:1007500026EC01F007C018F008C019F009C01AF023
:100760000AC01BF0206A216A120E226E420E236E0E
:1007700087C00CF088C00DF089C00EF08AC00FF061
:1007800020C007F021C008F022C009F00A6E8EECEC
:1007900001F007C01CF008C01DF009C01EF00AC01F
:1007A0001FF007C00CF008C00DF009C00EF00AC021
:1007B0000FF018C007F019C008F01AC009F01BC0EC
:1007C0000AF03BEC01F007C014F008C015F009C0B6
:1007D00016F00AC017F00C6A0D6A7A0E0E6E440EFF
:1007E0000F6E8EEC01F02AEC02F006C0DEFF07C0AF
:1007F000DEFF08C0DEFF09C0DDFFDD52DD52040E62
:10080000DB6A050EDB6A060EDB6A070EDB6A040E86
:10081000DBCF14F0050EDBCF15F0060EDBCF16F0A4
:10082000070EDBCF17F0D9CFE9FFDACFEAFFEE50A2
:10083000145CEE501558EE501658EE5017580BE257
:10084000D950040FE96EDACFEAFFEE2A000EEE224D
:10085000EE22EE22DCD70C0EE15C02E2E16AE55208
:10086000E16EE552E7CFD9FF1200D9CFE6FFE1CF25
:10087000D9FFFD0EDBCF14F0FE0EDBCF15F0E80E36
:100880001502F3CF15F0030E1402F3501526E80EEF
:100890001402F3CF14F0F4501526F3CFE6FF15C081
:1008A000E6FF42DFE552E552E552E7CFD9FF1200FD
:1008B000080EE66ED2EC06F0E552146A156A7A0E5E
:1008C000166E440E176E87C00CF088C00DF089C0FC
:1008D0000EF08AC00FF014C007F015C008F016C063
:1008E00009F00A6E3BEC01F0FBEC01F008C09EF051
:1008F00009C09FF00001FF0ED8809E579F5700014E
:10090000010E8F6FE66E00EC07F0E5529EC0E6FF29
:100910009FC0E6FFE5EC06F0E552E552DEEF06F09B
:100920008BC006F08CC007F08DC008F08EC009F0B7
:020930001200B3
:0E093200D9CFE6FFE1CFD9FFE652FC0EDB5035
:10094000C16EFB0EDB50C06E00017A6B7B6B7C6B63
:10095000DF6ADFCF14F00D0EE76E1418E8AE02D098
:10096000E73402D0E750145C10E2DFCFE9FFEA6A17
:10097000E9BEEA68D890E936EA36600EE926000E4C
:10098000EA22EE6AED6ADF2AE4D7680E146E0A0ED8
:10099000156E166AFD0EDBCFE9FFFE0EDBCFEAFF18
:1009A000060EE926000EEA2214C0EEFF15C0EEFF87
:1009B00016C0EEFF5E0E146E0A0E156E166AFD0E60
:1009C000DBCFE9FFFE0EDBCFEAFF14C0EEFF15C060
:1009D000EEFF16C0EEFFA20E146E0A0E156E166A1A
:1009E000FD0EDBCFE9FFFE0EDBCFEAFF030EE926AB
:1009F000000EEA2214C0EEFF15C0EEFF16C0EEFF97
:100A00002A0E146E0B0E156E166AFD0EDBCFE9FF73
:100A1000FE0EDBCFEAFF090EE926000EEA2214C023
:100A2000EEFF15C0EEFF16C0EEFF5E0E146E0B0E4D
:100A3000156E166AFD0EDBCFE9FFFE0EDBCFEAFF77
:100A40000C0EE926000EEA2214C0EEFF15C0EEFFE0
:100A500016C0EEFFE552E552E7CFD9FF1200C250B3
:100A6000020B01E0010E1200D9CFE6FFE1CFD9FF62
:100A7000FE0EDBCFE9FFEA6AE9BEEA68D890E93604
:100A8000EA36600EE926000EEA22EECF14F0EFCF30
:100A900015F014C0F3FF15C0F4FFE552E7CFD9FFFE
:100AA0001200D9CFE6FFE1CFD9FFFE0EDB500F0BCE
:100AB000F36EF346F346C30EC214F310C26EC28047
:100AC000C282C2B2FED7C450176E166AC350161047
:100AD000146E17C015F0FE0EDBCFE9FFEA6AE9BE1F
:100AE000EA68D890E936EA36600EE926000EEA2276
:100AF00014C0EEFF15C0EDFFFE0EDBCFE9FFEA6A82
:100B0000E9BEEA68D890E936EA36600EE926000EBA
:100B1000EA22EECF14F0EFCF15F014C0F3FF15C0AA
:100B2000F4FFE552E7CFD9FF1200D9CFE6FFE1CFBE
:100B3000D9FFC2A202D0000E0ED0FE0EDB500F0B6A
:100B4000F36EF346F346C30EC214F310C26EC280B6
:100B5000C2829D8C010EE552E7CFD9FF1200D9CF9A
:100B6000E6FFE1CFD9FFFC0EDBCF7AF0FD0EDBCF45
:100B70007BF0FE0EDBCF7CF0E552E7CFD9FF120011
:100B800000017A517B117C1101E1000CC450176EF9
:100B9000166AC35000011610146E17C015F0C2502B
:100BA0003C0BE842E842E96EEA6AD890E936EA3658
:100BB000600EE926000EEA2214C0EEFF15C0EDFF1C
:100BC000C2503C0BE842E842E96EEA6AD890E93646
:100BD000EA36600EE926000EEA22EECFE6FFEFCFFE
:100BE000E6FFC2503C0BE842E842E66E07D07CC00C
:100BF000FBFF7BC0FAFF00017A51F96EF8DFE55286
:060C0000E552E552010C73
:0A0C0600808386898C909396999C58
:100C10009FA2A5A8ABAEB1B4B7B9BCBFC2C4C7C987
:100C2000CCCED1D3D6D8DADCDEE1E3E5E6E8EAECF7
:100C3000EDEFF0F2F3F5F6F7F8F9FAFBFCFCFDFE48
:100C4000FEFFFFFFFFFFFFFFFFFFFFFFFEFEFDFCBC
:100C5000FCFBFAF9F8F7F6F5F3F2F0EFEDECEAE861
:100C6000E6E5E3E1DEDCDAD8D6D3D1CECCC9C7C421
:100C7000C2BFBCB9B7B4B1AEABA8A5A29F9C9996B0
:100C800093908C898683807D7A7774706D6A6764AF
:100C9000615E5B5855524F4C494744413E3C3937A1
:100CA00034322F2D2A282624221F1D1B1A18161411
:100CB0001311100E0D0B0A090807060504040302A0
:100CC000020101010101000101010101020203040D
:100CD0000405060708090A0B0D0E10111314161847
:100CE0001A1B1D1F222426282A2D2F323437393C67
:100CF0003E414447494C4F5255585B5E6164676AB8
:060D00006D7074777A7D2E
:0A0D0600320EF66E020EF76E000EBC
:100D1000F86E00010900F550826F0900F550836FED
:100D200003E1826701D03DD00900F5507D6F0900D5
:100D3000F5507E6F0900F5507F6F09000900F550EE
:100D4000E96E0900F550EA6E090009000900F55046
:100D5000806F0900F550816F09000900F6CF84F01B
:100D6000F7CF85F0F8CF86F07DC0F6FF7EC0F7FFA5
:100D70007FC0F8FF0001805302E1815307E00900C2
:100D8000F550EE6E8007F8E28107F9D784C0F6FFD0
:100D900085C0F7FF86C0F8FF00018207000E835B65
:040DA000BFD71200A7
:0C0DA400D9CFE6FFE1CFD9FFFE0EDB50F7
:100DB0007F0BD56EE552E7CFD9FF1200D58E12001A
:100DC000D59E1200D66AD76A1200D9CFE6FFE1CFCE
:100DD000D9FFFD0EDB50D66EFE0EDBCF15F015C031
:100DE00014F01550D76EE552E7CFD9FF1200D75057
:100DF000176E166AD6501610F36E17C0F4FF120065
:100E0000D9CFE6FFE1CFD9FFF294FE0EDB50E8B078
:100E1000F28AE8A0F29AE552E7CFD9FF1200F25029
:080E2000200B01E0010E12009D
:080E2800E66A800EE66E3B0E47
:100E3000E66E470EE66EE7EC02F0E552E552E5524B
:100E4000E552600EE66ED2EC06F0E552936A9288A7
:100E5000DEEF06F0F7EC06F0F3CFF6FFF4CFF7FF86
:100E6000060EF6260C0EF7220800F550816E1200D1
:100E7000000EF36E00EE00F0080E01D81200EA60DA
:100E800002D0EE6AFCD7F350E9601200EE6AFCD79C
:100E900013EE00F023EE00F0F86A019C83EC06F0FC
:0C0EA00003EC00F00FEC00F0FBD7120098
:040EAC000000803F83
:050EB00000000000003D
:020000040030CA
:0100000000FF
:010001000EF0
:010002003FBE
:010003001EDE
:01000500807A
:010006008178
:00000001FF
